:020000040800F2
:1000000000070020F5040008ED280008F12800088A
:1000100049290008F12800081D290008F7040008F4
:10002000F7040008F7040008F70400081D3700086B
:10003000F7040008F7040008F7040008F7040008B4
:10004000F7040008F7040008F7040008F7040008A4
:10005000F7040008F704000821490008494900088E
:100060007149000899490008C1490008F7040008CF
:10007000F7040008F7040008F7040008F704000874
:10008000F7040008F7040008F7040008F704000864
:10009000F70400085126000861260008E949000815
:1000A000F7040008F7040008F7040008F704000844
:1000B000D14A0008F7040008F7040008F704000814
:1000C000F7040008F7040008F7040008F704000824
:1000D000F7040008BD4A0008F7040008F704000808
:1000E0004D4A0008F7040008F7040008F704000868
:1000F000F7040008F7040008F7040008F7040008F4
:10010000F7040008F7040008F7040008F7040008E3
:10011000F7040008F7040008F7040008F7040008D3
:10012000F7040008F7040008F7040008F7040008C3
:10013000F7040008F7040008F7040008F7040008B3
:10014000F7040008F7040008F7040008F7040008A3
:10015000F7040008F7040008F7040008F704000893
:10016000F7040008F7040008F7040008F704000883
:10017000F7040008F7040008F7040008F704000873
:10018000F7040008F7040008F7040008F704000863
:10019000F7040008F7040008F7040008F704000853
:1001A000F7040008F7040008F7040008F704000843
:1001B000F7040008F7040008F7040008F704000833
:1001C000F7040008F7040008F7040008F704000823
:1001D000F7040008F7040008F7040008F704000813
:1001E00031180008000000000000000000000000BE
:1001F00053B94AB9002908BF00281CBF4FF0FF318E
:100200004FF0FF3000F074B9ADF1080C6DE904CE89
:1002100000F006F8DDF804E0DDE9022304B07047E1
:100220002DE9F047089D04468E46002B4DD18A42A9
:10023000944669D9B2FA82F252B101FA02F3C2F1DC
:10024000200120FA01F10CFA02FC41EA030E94406D
:100250004FEA1C48210CBEFBF8F61FFA8CF708FB8E
:1002600016E341EA034306FB07F199420AD91CEB66
:10027000030306F1FF3080F01F81994240F21C8198
:10028000023E63445B1AA4B2B3FBF8F008FB1033E0
:1002900044EA034400FB07F7A7420AD91CEB040415
:1002A00000F1FF3380F00A81A74240F207816444E5
:1002B000023840EA0640E41B00261DB1D44000236A
:1002C000C5E900433146BDE8F0878B4209D9002DCE
:1002D00000F0EF800026C5E9000130463146BDE858
:1002E000F087B3FA83F6002E4AD18B4202D38242C2
:1002F00000F2F980841A61EB030301209E46002D71
:10030000E0D0C5E9004EDDE702B9FFDEB2FA82F2C5
:10031000002A40F09280A1EB0C014FEA1C471FFA23
:100320008CFE0126200CB1FBF7F307FB131140EA0A
:1003300001410EFB03F0884208D91CEB010103F1D7
:10034000FF3802D2884200F2CB804346091AA4B299
:10035000B1FBF7F007FB101144EA01440EFB00FE6D
:10036000A64508D91CEB040400F1FF3102D2A645D2
:1003700000F2BB800846A4EB0E0440EA03409CE771
:10038000C6F12007B34022FA07FC4CEA030C20FA1E
:1003900007F401FA06F31C43F9404FEA1C4900FA3E
:1003A00006F3B1FBF9F8200C1FFA8CFE09FB1811BB
:1003B00040EA014108FB0EF0884202FA06F20BD92E
:1003C0001CEB010108F1FF3A80F08880884240F27E
:1003D0008580A8F102086144091AA4B2B1FBF9F0C2
:1003E00009FB101144EA014100FB0EFE8E4508D9BD
:1003F0001CEB010100F1FF346CD28E456AD9023842
:10040000614440EA0840A0FB0294A1EB0E01A14226
:10041000C846A64656D353D05DB1B3EB080261EB94
:100420000E0101FA07F722FA06F3F1401F43C5E96E
:10043000007100263146BDE8F087C2F12003D840A4
:100440000CFA02FC21FA03F3914001434FEA1C47E6
:100450001FFA8CFEB3FBF7F007FB10360B0C43EAD8
:10046000064300FB0EF69E4204FA02F408D91CEB88
:10047000030300F1FF382FD29E422DD90238634486
:100480009B1B89B2B3FBF7F607FB163341EA034126
:1004900006FB0EF38B4208D91CEB010106F1FF3875
:1004A00016D28B4214D9023E6144C91A46EA00466C
:1004B00038E72E46284605E70646E3E61846F8E6FE
:1004C0004B45A9D2B9EB020864EB0C0E0138A3E747
:1004D0004646EAE7204694E74046D1E7D0467BE728
:1004E000023B614432E7304609E76444023842E7A0
:1004F000704700BF02E000F000F8FEE772B63A482D
:1005000080F30888394880F3098839484EF6085145
:10051000CEF20001086040F20000CCF200004EF67E
:100520003471CEF200010860BFF34F8FBFF36F8FBD
:1005300040F20000C0F2F0004EF68851CEF2000109
:100540000860BFF34F8FBFF36F8F4FF00000E1EEF5
:10055000100A4EF63C71CEF200010860062080F3CE
:100560001488BFF36F8F04F06DF804F049F804F0BD
:1005700093F84FF055301F491B4A91423CBF41F858
:10058000040BFAE71C49194A91423CBF41F8040B9D
:10059000FAE71A491A4A1B4B9A423EBF51F8040B1C
:1005A00042F8040BF8E700201749184A91423CBF73
:1005B00041F8040BFAE704F027F804F0B3F8144C00
:1005C000144DAC4203DA54F8041B8847F9E700F0F5
:1005D00041F8114C114DAC4203DA54F8041B884722
:1005E000F9E704F00FB80000000700200023002006
:1005F000000000080001002000070020184F00083C
:10060000002300208823002088230020744F00202E
:10061000E0010008E4010008E4010008E40100082A
:100620002DE9F04F2DED108AC1F80CD0C3689D461E
:10063000BDEC108ABDE8F08F002383F311882846B3
:10064000A047002003F0E8FCFEE703F061FC00DFB8
:10065000FEE70000F8B503F079FF074603F0CAFF94
:10066000044688BB1D4B9F422ED001339F422ED0A3
:100670001B4B27F0FF029A422CD1F8B200F022FD6A
:10068000264642F2107500F027FF00F021FD08B960
:100690000646054634B1134B9F4203D003F0A2FF38
:1006A00000252E46002003F05BFF0EB100F062F83B
:1006B00001F034FA00F032FF01F020F9284600F092
:1006C000ADF800F057F8F9E726460025DBE70546C8
:1006D0000126D8E706464FF47A75D4E7010007B043
:1006E000000008B0263A09B008B501F0D9F8A0F129
:1006F00020035842584108BD07B541F212030221B8
:1007000001A8ADF8043001F0E9F803B05DF804FB8E
:1007100010B5202383F311881248C3680BB103F08E
:10072000F3FC114A0F4800234FF47A7103F0B0FC38
:10073000002383F311880D4C236813B12368013B18
:100740002360636813B16368013B6360084B1B78E7
:1007500033B9636823B9022001F06EF93223636074
:1007600010BD00BF8823002011070008A42400202A
:100770009C23002038B5234A234B1968013140D00F
:1007800004339342F9D1214C1F4DD4F80428AA42D6
:1007900037D31F4B9B6803F1006303F5F0439A4284
:1007A0002FD203F0F1FE03F003FF002001F0C0F8A8
:1007B000184B0220187001F037F9174B9A6D002280
:1007C0009A65996F9A67996FD96DDA65D96FDA670B
:1007D000D96F196E1A66D3F88010C3F88020D3F849
:1007E000803072B64FF0E0232021C3F8085DD4F8C2
:1007F0000038D4F8042881F311889D4683F30888D3
:10080000104738BD20780008007800080070000804
:10081000002300209C230020001002402DE9F04F0F
:1008200093B0A74B00902022FF210AA89D6801F0F9
:100830001FF9A44A1378A3B9A3480121C36011701A
:10084000202383F31188C3680BB103F05DFC9F4A3A
:100850009D4800234FF47A7103F01AFC002383F3C0
:100860001188009B9A4A03B113609A49009C0023A7
:100870000B70536098469B461E469A46012001F035
:10088000D3F824B1924B1B68002B00F0108200209B
:1008900001F006F80390039B002B01DA00F082FEC2
:1008A000039B002BEDDB012001F0B6F8039B213BFD
:1008B000122BE3D801A252F823F000BF0909000867
:1008C00031090008BF0900087D0800087D080008FC
:1008D0007D080008530A0008230C00083D0B00089F
:1008E0009F0B0008C70B0008ED0B00087D080008EF
:1008F000FF0B00087D080008710C0008770900084C
:100900007D080008B50C00080220FFF7EDFE002866
:1009100040F0F781009B0221B8F1000F08BF1C4690
:1009200005A841F21233ADF8143000F0D7FFA5E767
:100930004FF47A7000F0B4FF071EEBDB0220FFF7E4
:10094000D3FE0028E6D0013F042F00F2DC81DFE86F
:1009500007F0031D2023260005230593042105A885
:1009600000F0BCFF012000FA07F747EA0B0B5FFA23
:100970008BFB4FF0000A01F0C7F826B10BF00B0318
:100980000B2B08BF0024FFF7B7FE77E74C48042184
:10099000E6E751480421E3E750480421E0E74FF03F
:1009A0001C09484600F0C6FF09F10409059004211E
:1009B00005A800F093FFB9F12C0FF2D1D2E7002E79
:1009C000A8D00BF00B030B2BA4D10220FFF78CFE59
:1009D000074600289ED001203E4E00F0A9FF0220CD
:1009E000307001F021F84FF000085FFA88F94846AE
:1009F00000F0B0FF044690B1484600F0BBFF08F19C
:100A000001080028F1D1B846044641F21213022130
:100A100005A8ADF814303E4600F060FF2EE7012334
:100A20000220337000F0F8FF2546254B9B68AB424F
:100A300007D9284600F07EFF013040F06781043579
:100A4000F3E7244B00251D70214BB8465D603E4600
:100A500091E7002E3FF45EAF0BF00B030B2B7FF4FE
:100A600059AF1C4B0220187000F0DEFF322000F05E
:100A700017FFB0F10009FFF64DAF19F003077FF43F
:100A800049AF0F4A926809EB050393423FF642AF24
:100A9000B9F5807F3FF73EAF114B0193B94521DD9A
:100AA0004FF47A7000F0FCFE0390039A002AFFF6E0
:100AB00031AF019B039A03F8012B0137EDE700BF2B
:100AC00000230020A0240020882300201107000814
:100AD000A42400209C2300200423002008230020BD
:100AE000A0230020C820FFF7FFFD074600283FF4A1
:100AF00011AF1F2D11D8C5F120024A450AAB25F0D0
:100B0000030028BF4A4683490192184400F09EFF23
:100B1000019A8048FF2100F0ABFF4FEAA9037D490D
:100B20000193C9F38702284600F0AAFF0646002871
:100B30003FF46BAF019B05EB83051CE70220FFF739
:100B4000D3FD00283FF4E6AE00F030FF00283FF46C
:100B5000E1AE0027B946704B9B68BB4218D91F2FE6
:100B600011D80A9B01330ED027F0030312AA1344B5
:100B700053F8203C05934846042205A901F002FFE2
:100B800004378146E7E7384600F0D4FE0590F2E7E7
:100B9000CDF81490042105A800F0A0FEEBE6002398
:100BA000642104A8049300F08FFE00287FF4B2AE05
:100BB0000220FFF799FD00283FF4ACAE049800F046
:100BC000EBFE0590E6E70023642104A8049300F0FF
:100BD0007BFE00287FF49EAE0220FFF785FD0028F3
:100BE0003FF498AE049800F0D9FEEAE70220FFF740
:100BF0007BFD00283FF48EAE00F0E8FEE1E7022026
:100C0000FFF772FD00283FF485AE05A9142000F01F
:100C1000E3FE04210746049004A800F05FFE394675
:100C2000B9E7322000F03CFE071EFFF673AEBB07AB
:100C30007FF470AE384A926807EB0A0393423FF69E
:100C400069AE0220FFF750FD00283FF463AE27F0A5
:100C500003075744BA453FF48EAE504600F06AFE93
:100C60000421059005A800F039FE0AF1040AF1E715
:100C70004FF47A70FFF738FD00283FF44BAE00F0D8
:100C800095FE002844D00A9B01330BD008220AA904
:100C9000002000F0F5FE00283AD02022FF210AA80B
:100CA00000F0E6FEFFF728FD1C4803F0BBF913B087
:100CB000BDE8F08F002E3FF42DAE0BF00B030B2B95
:100CC0007FF428AE0023642105A8059300F0FCFD05
:100CD000074600287FF41EAE0220FFF705FD81467F
:100CE00000283FF417AEFFF707FD41F2883003F00C
:100CF00099F9059800F01EFF4E4600F005FF3C46AE
:100D0000BCE5064637E64FF0000A03E6B8467CE647
:100D100037467AE6A023002000230020A0860100A9
:100D2000094A136849F2690099B21B0C00FB0133B0
:100D30001360064B186844F2506182B2000C01FB4C
:100D40000200186080B27047102300200C2300209E
:100D500010B500211022044600F08AFE034B03CB9D
:100D6000206061601868A06010BD00BF9075FF1F13
:100D70002DE9F043204DBBB001F000FEAB68C31A73
:100D8000F92B32D906AFA8602B462822002138461D
:100D900002F08CFA05F10E0000F062FE0026044617
:100DA0005FFA80F905F10E08F3B2F100994501F1FF
:100DB000280107D908EB06030822384602F076FA24
:100DC0000136F1E708230122CDE9023205340B4B4D
:100DD0000193A4B230230093CDE9047404A3D3E9B2
:100DE0000023297B064802F079F83BB0BDE8F08388
:100DF00078F6339F93CACD8D68490020754900204D
:100E0000C434002070B50D4614461E4601F0FCFFA8
:100E100050B9022E10D1012C0ED112A3D3E9002318
:100E2000C5E90023012007E0282C10D005D8012CAB
:100E300009D0052C0FD0002070BD302CFBD10BA3A6
:100E4000D3E90023ECE70BA3D3E90023E8E70BA3E6
:100E5000D3E90023E4E70BA3D3E90023E0E700BFD5
:100E6000AFF30080401DA12026812A0B78F6339F26
:100E700093CACD8D9E6AC421818A46EE2641727244
:100E8000DF25D7B7F017304A39059E5613B504460B
:100E90002346084620220021019002F007FA227919
:100EA0000198032A234628BF032203F8042F202198
:100EB000022202F0FBF962790198072A234628BF33
:100EC000072203F8052F2221032202F0EFF9A2796D
:100ED0000198072A234628BF072203F8062F252159
:100EE000032202F0E3F9019804F1080310222821FB
:100EF00002F0DCF9382002B010BD00002DE9F04FFF
:100F0000ADF5017D21AD0EAE40F2751280460F4663
:100F100022A80021296000F0ABFD482200213046C4
:100F200000F0A6FD01F02AFD564B4FF47A72B0FB9B
:100F3000F2F0186093E80700012386E807000DF13E
:100F40005A003382FFF704FF41F20413338407ABE6
:100F500018464D4903F0A4FE182230642946304655
:100F600086F83C20FFF792FF12AB044601460822A8
:100F7000284602F09BF90822A1180DF149032846E2
:100F800002F094F90DF14A03082204F110012846F9
:100F900002F08CF913AB202204F11801284602F06C
:100FA00085F914AB402204F13801284602F07EF99D
:100FB00016AB082204F17801284602F077F90DF10A
:100FC0005903082204F18001284602F06FF904F168
:100FD000880A0DF15A0904F5847B4B4651460822D4
:100FE00028460AF1080A02F061F9D34509F101091E
:100FF000F3D11BAB08225946284602F057F904F5F5
:1010000088744FF0000996F834304B450AD9B36B19
:1010100021464B440822284602F048F9083409F1D9
:101020000109F0E74FF0000996F83C304B4504EB1E
:10103000C90108D9336C08224B44284602F036F91E
:1010400009F10109F0E700230393BB7E0293073106
:1010500007F119030193C1F3CF010123CDE9045135
:101060000093F97E05A3D3E90023404601F036FF43
:101070000DF5017DBDE8F08FAFF300809E6AC421BD
:10108000818A46EEAC240020D04C000810B50A4BF3
:101090000A4A1A6003F5805393F840203AB9DC6B92
:1010A0002CB1204601F0E8FA204603F063FDBDE8CC
:1010B0001040034801F0E0BAE8340020B04D0008C9
:1010C00010450020014B1870704700BFB824002065
:1010D000F0B5334B1C7B85B034B1324B0E221A81F4
:1010E0000024204605B0F0BD2F4A1068516802ABBD
:1010F00003C308232D492E480DEB030203F062FDC4
:10110000054630B9274B2B480A221A8101F0B0FA64
:10111000E6E70169B1F5623F06D9224B26480B226A
:101120001A8101F0A5FADCE7438B40F211429342A9
:1011300007D01C490C2008811946204801F098FA74
:10114000CFE71F4A024402F11003994204D2154B23
:101150001C4810221A81E4E710398E1A20461449DF
:1011600001F010FC3246074605F11801204601F057
:1011700009FCAB689F4202D1EB6898420AD0094B48
:101180000D221A810090D5E902123B460E4801F06B
:101190006FFAA5E70D4801F06BFA0124A1E700BF43
:1011A00068490020AC2400207D4D0008DC87030046
:1011B00000780008EC4C0008F84C00080A4D0008C4
:1011C0000888FFF7284D0008454D00086E4D0008BF
:1011D0002DE9F04FADB006AF80460C4601F014FE8D
:1011E000054600285AD1237E022B1BD1E38A012B0E
:1011F00018D101F0C3FB0646FFF792FD03464FF4FA
:10120000C870DFF8D092B3FBF0F206F5167602FB59
:10121000103316FA83F3C9F80030E37E33B9A84BD4
:1012200000221A709C37BD46BDE8F08FA38AEEB24B
:10123000013BB34205F101050BD93B1D1E44E900FA
:1012400000960023082201F0F801204601F0F2FE8A
:10125000ECE707F11400FFF77BFD324607F11401BC
:10126000381D03F09FFC0028D9D10F2E08D8944BCD
:101270001E70D9F80030A3F51673C9F80030D1E715
:10128000FB1CF8700146009307220346204601F03C
:10129000D1FEF978404601F0AFFDC3E7E38A282B81
:1012A00026D010D8012B1ED0052BBBD1BFF34F8FFA
:1012B0008449854BCA6802F4E0621343CB60BFF3F4
:1012C0004F8F00BFFDE7302BACD1637E7F4D0133E4
:1012D0006A7BDBB29342E94603D1E27E2B7B9A42E2
:1012E00065D0CD469EE721464046FFF707FE99E7C9
:1012F000A38A013B9BB2C92B94D8744D2E7B26BB8D
:1013000005F10C030093082233463146204601F0D4
:1013100091FE731CF2B2D9001E46A38A013B9A4289
:1013200005DA0E322A44009200230822EEE7002359
:101330000022C5E900230023AB6085F8D730C5F84B
:10134000D8302B7B0BB9E37E2B73002507F11409F2
:101350003B1D082229464846C7E90155FD6001F0BA
:10136000A5FF3B7A05F1010AAB424FEACA0608D94C
:10137000FB6808222B443146484601F097FF55464A
:10138000EFE7C6F3CF06E17ECDE904960023039391
:10139000A37E0293193428230093019446A3D3E932
:1013A0000023404601F09AFDFFF7E2FC3AE74FF0D8
:1013B000000807F11403A7F8148010220093414697
:1013C0000123204601F036FEA68A023EB6B2F31C87
:1013D0009B109B000733DB08A9EBC3039D460DF16F
:1013E000180A1FFA88F34FEAC801B34201F110014D
:1013F0000AD20AEB0803009308220023204601F0DA
:1014000019FE08F10108ECE795F8D70000F0A2FA00
:10141000D5F8D83004461BB995F8D70000F0AAFAE1
:10142000D5F8D83033449C4204D295F8D700013027
:1014300000F0A0FA4FEA960B4FF000081FFA88F16F
:101440008B45D5E9003209D90AEB880103EB880006
:10145000012200F015FB08F10108EFE7F31842F153
:101460000002C5E90032D5F8D83095F8D70006EB70
:101470000308C5F8D88000F06DFA804509D395F8C7
:10148000D730D5F8D8000133001B85F8D730C5F820
:10149000D800FF2E08D800232B7300F087FAFFF73F
:1014A00017FE08B1FFF766F92B68094A9B0A01335A
:1014B00013810023AB6014E726417272DF25D7B792
:1014C000BD34002000ED00E00400FA05684900206A
:1014D000AC240020C034002008B54FF000530B4A64
:1014E000196891420AD10A4A597D117009481B7D39
:1014F00003730949C9220E3000F0A8FABDE808407C
:10150000E02200214FF0005000F0B2BA9AAD44C57D
:10151000B8240020684900201600002037B5184D77
:1015200018491948022301226B7100F023FD0023A2
:101530000193164B164900931648174B4FF48052EF
:1015400001F034FC154B197811B1124801F054FC2C
:1015500001F014FA0446FFF7E3FB4FF4C873B0FB45
:10156000F3F202FB130304F5167010FA83F00C4B30
:10157000186003F03FF808B10F232B8103B030BD92
:10158000AC24002040420F00E8340020050E000883
:10159000BC240020C4340020D1110008B82400204D
:1015A000C03400202DE9F04F2DED028B97A7D7E92D
:1015B00000670FF26029D9E900898E4C95B0DFF8F9
:1015C0005CA2DFF85CB2204601F0ECFC034650B3AD
:1015D0000025CDE9115510958DF84C50027B8DF802
:1015E0004C209968406811AA03C21B6843F000436D
:1015F000109301F0C5F910EB0A0241F100030095C8
:1016000010A9584600F000FBA8427B4A05DD2046A1
:1016100001F0CCFC784A1570D5E71378072B00F25F
:10162000BA80013313700DAD9FED708B0023DFF88E
:10163000F0B10C938DF83C300D936B6000230DF1ED
:1016400025028DED008B4FF0010A09A958468DF84F
:1016500025308DF824A000F0A1FF9DF82420002360
:10166000002A40F09C80204601F0CEFB0546002871
:1016700047D1DFF8B0B101F081F9DBF800309842D2
:101680003FD301F07BF90790FFF74AFB079A4FF42D
:10169000C87302F51672B0FBF3F101FB130312FAE3
:1016A00083F3CBF80030DFF880B19BF8001007918E
:1016B000002914BF2B46534610A88DF83030FFF791
:1016C00047FB0799C1F11002D2B2062A10AB28BF1E
:1016D000062219440DF13100079200F0B7F9079A7C
:1016E0000CAB0393182302930132444BD2B2CDE9E1
:1016F00000A304923B463246204601F087FB8BF85C
:10170000005001F03BF93E4A3E4D1368C31AB3F551
:101710007A7F33D3106001F033F902460B4620463E
:1017200001F04EFC204601F06FFB38B32B7BDFF855
:10173000FCA0002B14BF032302238AF8053001F01C
:101740001DF90DF1400B4FF47A735946B0FBF3F0DD
:10175000CAF800005046FFF799FB182307300293A0
:10176000294B0193C0F3CF0040F25513CDE903B0EC
:10177000009342464B46204601F048FB2B7B2BB1A1
:10178000FFF7F6FA2B7B002B7FF419AF15B0BDECF9
:10179000028BBDE8F08F204601F008FC43E74FF0D4
:1017A000904110A84A6982F010024A61194610223D
:1017B00000F05EF90DF126030AAA0CA9584600F0C4
:1017C000CFFA95E8030011AB83E803009DF83C30A5
:1017D0008DF84C300C9B109310A9DDE90A232046AC
:1017E00001F0ACFD2AE700BFAFF30080000000006D
:1017F00000000000C43400204D4A0020BC3400200A
:10180000484A0020684900204C4A0020401DA12081
:1018100026812A0BF1C6A7C1D068080F40420F00ED
:10182000E8340020C0340020BD340020AC24002067
:1018300008B5054800F01CFBBDE80840034A044910
:10184000002003F091B900BFE8340020A04A002036
:101850008D10000870B50F4B1B780133DBB2012BE4
:101860000C4611D80C4D29684FF47A730E6AA2FB0E
:101870000332014622462846B047844204D1074B32
:1018800000221A70012070BD4FF4FA7002F0CAFBFA
:101890000020F8E714230020A44A0020944A0020E6
:1018A00007B50023024601210DF107008DF807302E
:1018B000FFF7D0FF20B19DF8070003B05DF804FBEF
:1018C0004FF0FF30F9E700000A4608B50421FFF7A2
:1018D000C1FF80F00100C0B2404208BD30B4054CE9
:1018E0002368DD69044B0A46AC460146204630BCFD
:1018F000604700BFA44A0020A086010070B502F036
:10190000C9FC094E094D3080002428683388834281
:1019100008D902F0BBFC2B6804440133B4F5F04F46
:101920002B60F2D370BD00BF964A0020504A0020C1
:1019300002F05EBD00F1006000F5E040D0F8000864
:101940007047000000F10060920000F5F04002F0E6
:10195000DDBC0000054B1A68054B1B889B1A8342AF
:1019600002D9104402F092BC00207047504A002077
:10197000964A002038B5074D04462868204402F0F6
:101980008BFC28B928682044BDE8384002F096BC9A
:1019900038BD00BF504A00200020704700F10050C1
:1019A000A0F51040D0F8900570470000064991F866
:1019B000243033B10023086A81F824300822FFF76D
:1019C000C1BF0120704700BF544A0020014B186876
:1019D000704700BF002004E070B50E4B5C6893F9BF
:1019E0000860421E0A44013C0B46934207D214F998
:1019F000015F581C2DB100F8015C0346F5E718465D
:101A000005E02C2482421C7001D9981C5E70401A9B
:101A100070BD00BF18230020022802BF4FF0904382
:101A200010229A6170470000022802BF4FF09043D5
:101A30004FF480129A617047022801BF4FF0904224
:101A4000536983F0100353617047000010B5002301
:101A5000934203D0CC5CC4540133F9E710BD0000BD
:101A600003460246D01A12F9011B0029FAD1704729
:101A700002440346934202D003F8011BFAE7704781
:101A80002DE9F8431F4D144695F824200746884653
:101A900052BBDFF870909CB395F824302BB920220C
:101AA000FF2148462F62FFF7E3FF95F82400C0F1BD
:101AB0000802A24228BF2246D6B24146920005EB58
:101AC0008000FFF7C3FF95F82430A41B1E44F6B234
:101AD000082E17449044E4B285F82460DBD1FFF768
:101AE00065FF0028D7D108E02B6A03EB820383420D
:101AF000CFD0FFF75BFF0028CBD10020BDE8F883F3
:101B00000120FBE7544A0020024B1A78024B1A705E
:101B1000704700BF944A0020142300200349044862
:101B20004FF4E1330B6002F017B900BF7C4A00208C
:101B3000A44A0020074B10B500210446182218467D
:101B4000FFF796FF04600146BDE81040024802F02E
:101B500003B900BF7C4A0020A44A0020202383F35D
:101B6000118862B670470000002383F3118862B6C3
:101B70007047000001207047704700007047000068
:101B800000F5805090F851047047000000F5805037
:101B900090F84A04704700005020704700F58052CA
:101BA00008B5FFF7DBFFD2F87434D2F8700418449C
:101BB000D2F86C341844D2F858341844D2F864344B
:101BC0001844D2F860341844FFF7CEFF08BD000077
:101BD00038B5426A936923F001039361044600F02B
:101BE000CDFE0546636A9B69DB0706D500F0C6FE9D
:101BF000431BFA2BF6D9002004E004F580540120A1
:101C000084F84A0438BD0000F8B500F580551F4639
:101C1000D5F854340133C5F854340C6814F000542A
:101C200061D10B7B082B5ED895F84A34002B5AD033
:101C3000FFF794FF436AD3F8C460B60208D5D5F81D
:101C400058340133C5F858342046FFF78DFFF8BDEE
:101C5000D3F8C4400D68C369C4F30144482616FB99
:101C60000436002DB4BF45F08045AD0435600B68E7
:101C70005B0044BF45F0005535600D7B230643EA09
:101C8000054373604B68B3608B68F360456A01235A
:101C9000A340C5F8CC3000EB441303F58253C3E9ED
:101CA000022700EB441303F58253103301F10C02B9
:101CB00051F8045B43F8045B9142F9D10A781A7039
:101CC00004F18302530100EB4212C450BDF81830F6
:101CD000117903F0030343F0100321F01F010B43BC
:101CE00013710120B1E7D5F858340133C5F85834E1
:101CF0004FF0FF30ABE7000013B50446019100F050
:101D0000F1FC1F280AD901992022204600F060FD2D
:101D1000A0F120035842584102B010BD0020FBE75B
:101D200008B500F58050FFF719FFC06B00F0AEFC5E
:101D3000BDE80840FFF718BF00220260027342604E
:101D40008260704710B500220023C0E90023002301
:101D5000044603810C30FFF7EFFF204610BD000062
:101D60002DE9F041054688B005F5805568461F46C7
:101D70000C46FFF7F3FE9046FFF7E4FFE86B00F038
:101D800097FC1F2805D80020FFF7EEFE08B0BDE83D
:101D9000F081E86B2022694600F09CFD2028F2D1FA
:101DA00095F84A34002BEED003AD05AB2E4603CE9A
:101DB0009E4220606160354604F10804F6D1306827
:101DC000206033792371DDE90023C8E90023BDF8E1
:101DD00008303B800120D7E72DE9F84F8046214BA2
:101DE00048F8283B00F5815504460F46464608351D
:101DF00030462036FFF7A6FFAE42F9D104F58055F4
:101E00004FF480534FF00009C5E90B39C5F828801D
:101E10000123EE6304F5A35804F58356C5F8349006
:101E200085F8383085F84030083608F108084FF05A
:101E3000000A4FF0000B46E908ABA6F11800FFF7C7
:101E40007BFF203646F8289C4645F4D185F850742F
:101E500017B1054800F08CFD044B63622046BDE8D5
:101E6000F88F00BFB04D0008944D0008006400409A
:101E700010B5044B197804464A1C1A70FFF7ACFFE2
:101E8000204610BD9D4A00202DE9F04300294FD087
:101E9000284B2948B0FBF1F099428CBF0A2311234B
:101EA0005D1EB0FBF3F703FB1703ECB22BB1022D61
:101EB0002B46F5D80020BDE8F0837E1EB6F5806F76
:101EC000F8D2C4EBC40C0CF103034FEAE308C3F3EC
:101ED000C703A4EB030E08F101094FF47A755FFA0A
:101EE0008EF008FB055559FA8EFEB5FBFEF5B5F5EB
:101EF000617FC1BF0CF1FF33C3F3C703E01AC0B267
:101F00005C1C50FA84F40C4D7C43B5FBF4F4A14204
:101F1000D0D1013BDBB20F2BCCD80138C0B207289F
:101F2000C8D80021107116809170D3700120C2E7CB
:101F30000846C0E73F420F0000127A000B4B10B575
:101F40004FF45472044600211846FFF791FD084BE8
:101F5000236140336361D833A361F033E361636A83
:101F6000E0600022C3F8C02010BD00BF00A4004004
:101F700070A400402DE9F04700F5805588B095F831
:101F80005034012B04468846164647D87E4A52F8FC
:101F9000231009B942F823007C49C4F804800B7867
:101FA000267293B9FFF7DAFD794B9A6D42F0007211
:101FB0009A659A6B42F000729A639A6B22F00072F3
:101FC0009A6301230B70FFF7CFFD95F8493473B97D
:101FD00002211520FFF7C2FD01F00CFD02211620A1
:101FE00001F008FD012385F84934FFF7BDFDFFF737
:101FF000B5FD626A936923F01003936100F0BEFCA3
:102000008146636A9F6917F008070AD000F0B6FCA2
:10201000A0EB0903FA2BF4D9FFF7A6FD4FF0000857
:10202000AEE09A6942F001029A6100F0A7FC814695
:10203000636A9A69D10706D400F0A0FCA0EB0903FB
:10204000FA2BF5D9E8E79A6942F002029A61636ACD
:102050004FF00009C3F85490FFF786FDE86B00F0DD
:1020600015FB04F5825A0AF1080A2022002168466D
:10207000FFF7FEFC02A8FFF75FFECDF818906A4656
:102080000AEB07030DF1180E9446BCE80300F44573
:1020900018605960624603F10803F5D1DCF80000CE
:1020A000186020379CF804201A71B7F5806FDCD1D6
:1020B00000276A46414685F8487485F84B742046E7
:1020C000ADF80070ADF802708DF80470FFF7DCFE1B
:1020D000626A804680B9936923F00103936100F03E
:1020E0004DFC0546636A9B69DA0797D500F046FC0C
:1020F000431BFA2BF6D991E79DF802309DF803E0D7
:102100009DF80400BDF800C05B0643EA0E230343BC
:1021100043EA0C43D3614FEA0E21626A41EA0C4361
:1021200043EA0013D3602046FFF708FF85F8517497
:10213000636A6FF040421A65636A164A5A65636AB9
:1021400044229A65636A0722C3F8DC20636A03228B
:102150009642DA6514D0626A936923F001039361B1
:1021600000F00CFC0646636A9B69DB0705D500F0AE
:1021700005FC831BFA2BF6D950E7012385F84A3476
:10218000404608B0BDE8F087984A00209C4A0020ED
:10219000001002409B0008002DE9F043074689B07B
:1021A00090469946002600F580557B6AD3F8D430D6
:1021B000F340D9073ED506F1830307EB43131A79A1
:1021C000120737D4D5F85C240132C5F85C241A799B
:1021D00042F008021A71D30724D595F84B340BB39B
:1021E00007F582541034684604EB4614FFF7AAFD45
:1021F0000DF10C0C04F1080220686168634603C30A
:10220000083494429C46F7D12068186023798CF8F2
:102210000430E86B01236946CDE90089ADF8083048
:10222000FFF76AFDD5F84C3423B1D5F87834013383
:10223000C5F878340136202EB7D109B0BDE8F08357
:102240002DE9F0478CB004468A4600F099FB8146A0
:102250008846BAF1000F5BD1636AD3F890209701EA
:1022600041BF04F58051D1F870240132C1F87024C7
:10227000D3F89020160703D100200CB0BDE8F087FA
:10228000D3F890606569C6F30126482303FB065521
:102290006F463846FFF750FD2A6851004ABF22F0CA
:1022A0006043C2F38A4343F00043920048BF43F0C7
:1022B00080430093EB8803F00F038DF80C3001AAE4
:1022C000EB1D0F3513F8011F02F8011BAB42F9D1CA
:1022D000BAF1000F35D1636AC3F8946004A8FFF720
:1022E00031FD97E80F0007AD07C504F580542B704A
:1022F000E06B002304A9CDE90498ADF81830FFF78E
:10230000FBFC28B3D4F868340133C4F86834B4E76C
:10231000BAF1010FB0D1636AD3F89820950141BF9B
:1023200004F58051D1F870240132C1F87024D3F83B
:1023300098201007A0D0D3F89860A569C6F30126AD
:10234000A3E7BAF1010F04BF636AC3F89C60C5E755
:10235000D4F86C340133C4F86C3401208DE70000EC
:10236000F8B505460F4600F5805401263946284643
:10237000FFF766FF10B184F84B64F7E7D4F84C34EC
:1023800023B1D4F878340133C4F87834F8BD0000B0
:10239000F0B5436A1A6C12F47F0F29D000F580540F
:1023A0001B6CC4F87C3400F583560023012703F12D
:1023B000830200EB421211798D0716D5490714D418
:1023C0005901456A7158D5F8C8C007FA01F111EAF8
:1023D0000C0F0AD0C5F8D010117941F00401117129
:1023E000D4F864240132C4F864240133202BDED1F4
:1023F000F0BD000010B5254C254B226802B338B360
:102400001A6D12060ED580221A6500F0B9FA50EA4C
:1024100001020B4602D0013861F100030246206838
:10242000FFF7BAFE1A4A136D1B032AD523684FF42F
:10243000002103F580531165012283F8512420E027
:1024400001221A6508221A654FF480621A6510BDD0
:10245000196DC80702D4196D890705D503211965BF
:1024600010460021FFF77CFF094B1A6D100702D4BC
:102470001A6DD10605D518221A6520680121FFF7CB
:102480006FFF2068BDE81040FFF782BF984A002028
:102490000064004008B5FFF761FBFFF779FFBDE876
:1024A0000840FFF761BB0000436AD3F8C40080F422
:1024B0000010C0F34050704700F5805008B5FFF79A
:1024C0004DFBC06B00F0F4F8FFF74EFB43090CBF67
:1024D0000120002008BD000000F5805393F851242E
:1024E00062B1416A8A6922F001028A61D3F87424D8
:1024F0000132C3F87424002283F85124704700008D
:102500002DE9F34100F5825198460831FFF726FB8B
:1025100000254FF0010E00F5805C05F1830400EB0F
:10252000441423795E071CD4DB061AD5436A8E69EE
:10253000D3F8C8700EFA06F63E4212D04F680197E3
:102540000F689742019F77EB08070AD2C3F8D06063
:10255000237943F004032371DCF860340133CCF8B1
:1025600060340135202D01F12001D6D102B0BDE843
:10257000F041FFF7F9BA0000F8B51E4600231370CA
:102580000F4605461446FFF797FF80F001003870AC
:102590001EB12846FFF788FF2070F8BD2DE9F04FE7
:1025A00085B099460B7801930E4613780293DDE9C6
:1025B0000EBA8046174600F0E3F9337804460D461C
:1025C00013B93B78002B41D022462B464046FFF7FB
:1025D00097FFFFF75FFFFFF77FFF4B463A46314615
:1025E000FFF7CAFF33782BB1019B1BB1012005B067
:1025F000BDE8F08F3B7813B1029B002BF6D108F5B4
:10260000805303935C4575EB0A031FD2039BD3F8F9
:102610004C04D8B10368BBEB0402D9686AEB05032C
:1026200088474B463A4631464046FFF7A5FF337888
:1026300013B1019B002BD9D13B7813B1029B002B26
:10264000D4D100F09DF904460D46DBE70020CEE72B
:1026500008B50020FFF7CEFEBDE8084001F092B8B3
:1026600008B50120FFF7C6FEBDE8084001F08AB8B2
:102670000FB4002004B0704710B5037C044613B9B2
:10268000006802F087FA204610BD00000023BFF367
:102690005B8FC360BFF35B8FBFF35B8F8360BFF360
:1026A0005B8F7047BFF35B8F0068BFF35B8F704732
:1026B00070B505460C30FFF7F5FF05F10806044636
:1026C0003046FFF7EFFFA04206D930466D68FFF7AE
:1026D000E9FF2544281A70BD3046FFF7E3FF201AB2
:1026E000F9E7000070B50546406898B105F10800AB
:1026F000FFF7D8FF05F10C0604463046FFF7D2FF7E
:102700008442304694BF6D680025FFF7CBFF013C43
:102710002C44201A70BD000038B50C460546FFF762
:10272000C7FFA04210D305F10800FFF7BBFF044428
:102730006868B4FBF0F100FB1144BFF35B8F01202C
:10274000AC60BFF35B8F38BD0020FCE72DE9F041A2
:10275000144607460D46FFF7C5FF844228BF0446CE
:10276000D4B1B84658F80C6B4046FFF79BFF304495
:10277000286040467E68FFF795FF331A9C4203D8D5
:102780006C600120BDE8F0816B60A41B3B68AB600E
:102790002044E8600220F5E72046F3E738B50C4610
:1027A0000546FFF79FFFA04210D305F10C00FFF78D
:1027B00079FF04446868B4FBF0F100FB1144BFF3F7
:1027C0005B8F0120EC60BFF35B8F38BD0020FCE71E
:1027D0002DE9FF41884669460746FFF7B7FF6C467B
:1027E00006B204EBC6060025B44209D06268206830
:1027F00008EB0501FFF72AF9636808341D44F3E785
:1028000029463846FFF7CAFF284604B0BDE8F081E4
:10281000F8B505460C300F46FFF744FF05F10806F2
:1028200004463046FFF73EFFA042304688BF6C6842
:10283000FFF738FF201A386020B130462C68FFF7C8
:1028400031FF2044F8BD000073B5144606460D461E
:10285000FFF72EFF844228BF04460190DCB101A996
:102860003046FFF7D5FF019B33B93268C5E9023323
:10287000C5E9002401200CE09C4238BF0194286087
:10288000019868608442F5D93368AB60241AEC6023
:10289000022002B070BD2046FBE700002DE9FF4199
:1028A0000F466946FFF7D0FF6C4600B204EBC00547
:1028B0000026AC4209D0D4F8048054F8081BB8199B
:1028C0004246FFF7C3F84644F3E7304604B0BDE89C
:1028D000F081000038B50546FFF7E0FF04460146E9
:1028E0002846FFF719FF204638BD0000FEE700002C
:1028F00000B59BB0EFF3098168226846FFF7A6F8A0
:10290000EFF30583044B9A6BDA6A9A6A9A6A9A6AB9
:102910009A6A9A6A9B6AFEE700ED00E000B59BB0F8
:10292000EFF3098168226846FFF790F8EFF305831B
:10293000044B9A6B9A6A9A6A9A6A9A6A9A6A9B6A2A
:10294000FEE700BF00ED00E000B59BB0EFF30981AA
:1029500068226846FFF77AF8EFF30583034B5A6B5A
:102960009A6A9A6A9A6A9A6A9B6AFEE700ED00E0A0
:102970000FB408B5029801F0EFFAFEE701F082BD4E
:1029800001F05ABD30B5094D0A4491420DD011F8FD
:10299000013B5840082340F30004013B2C4013F056
:1029A000FF0384EA5000F6D1EFE730BD2083B8ED95
:1029B0002DE9F041C56915B9C161BDE8F0814B68E9
:1029C00023F06047C3F38A464FEAD37EC3F380788F
:1029D00016EA230638BF3E46AC462B465A68BEEB85
:1029E000D27F22F060440AD0002A18DAA40CB44244
:1029F00017D19D420FD10D60DEE71346EEE7A742E7
:102A000007D102F08044C2F3807242450BD054B12A
:102A1000EFE708D2EDE7CCF800100B60CDE7B44249
:102A200001D0B442E5D81A689C46002AE5D1196065
:102A3000C3E700002DE9F047089D01F007044FEAC5
:102A4000D508224405F0070500EBD1004FF47F497B
:102A5000944201D1BDE8F08704F0070705F0070AAA
:102A600057453E4638BF5646C6F10806111B8E42F2
:102A700028BF0E46E10808EBD50E415C13F80EC0E6
:102A8000B94029FA06F721FA0AF1FFB28CEA0101EE
:102A900047FA0AF739408CEA010C03F80EC03444B7
:102AA0003544D5E780EA0120082341F2210201B232
:102AB0004000002980B203F1FF33B8BF504013F04B
:102AC000FF03F4D17047000038B50C468D18A542BD
:102AD00000D138BD14F8011BFFF7E4FFF7E7000051
:102AE00002684AB113680360C388018901339BB24D
:102AF0009942C38038BF03811046704770B588B0D3
:102B0000202204460D4668460021FEF7B1FF20460C
:102B10000495FFF7E5FF024658B16B46054608AE3F
:102B20001C4603CCB44228606960234605F10805C1
:102B3000F6D1104608B070BD10B54B6823B9CA8AEB
:102B400063F30902CA8210BDC4681A681C60C360BE
:102B5000438A013B43824A60EFE700002DE9F84FCA
:102B60001D46CB8A0F46C3F30901062981469246CA
:102B70000B4630D00020AAB207F119049EB2052EF0
:102B80001FFA80F80FD8904503F1010306D3FB8AA2
:102B90000A4462F30903FB8201201AE01AF800607C
:102BA000E6540130EAE79045F1D2A1F1060B1C236F
:102BB0007C68BBFBF3F203FB12BB1FFA8BF6002C05
:102BC00045D14846FFF78CFF044638B978606FF06E
:102BD0000200BDE8F88F4FF00008E6E70026066027
:102BE0007860ADB24FF0000B454510D90AEB0803F1
:102BF000221D13F8011B9155B1B208F101081B29E0
:102C00001FFA88F82BD0454506F10106F1D8FB8A5A
:102C1000C3F30902154465F30903BCE7013292B21C
:102C20001C462368002BF9D1AB1F0B441C21B3FBBE
:102C3000F1F301339BB29A42D3D2BBF1000FD0D152
:102C40004846FFF74DFF20B9C4F800B0BFE70122A6
:102C5000E7E7C0F800B05E4620600446C1E745459E
:102C6000D5D94846FFF73CFF08B92060AFE7C0F868
:102C700000B0002620600446B6E700002DE9F04FC2
:102C80002DED028B83B0CDE90013BDF83C408046AA
:102C90009246002A00F087802CB10E9B002B00F09A
:102CA0008280072C2BD808F10C00FFF719FF05468E
:102CB00038B96FF00205284603B0BDEC028BBDE8C1
:102CC000F08F14220021FEF7D3FE22460E9905F163
:102CD0000800FEF7BBFE631C2B749AF800302C44EE
:102CE00003F01F0363F03F032372009B43F0004196
:102CF000696040462946FFF75BFE0125DBE700F1EE
:102D00000C034FF0000908EE103A4FF0800B4E46CE
:102D10004D4618EE100AFFF7E3FE07460028C8D01C
:102D200014220021FEF7A4FE002E3AD1019B3B8124
:102D300002220E9B02F1080103EB060C57FA81F107
:102D40001046B44202F10102D2B201D8024607E0B5
:102D50001CF8010B01F8010B0136062AB6B2EFD9B7
:102D60009AF8001001F01F01B44208BF4FF0400B69
:102D7000B81841EA49114BEA01030372009B013282
:102D800043F000437B603A7439464046FFF710FE3B
:102D90000135B4422DB289F001094FF0000BB8D1D2
:102DA00089E70022C5E76FF0010584E7F8B515460D
:102DB0000E462422002104461F46FEF759FE069BBC
:102DC0006360B5F5001F079BA76034BF6A094FF623
:102DD000FF72236204F10C0097B200239A4205D8D7
:102DE0000023036027826382A382F8BD066001335B
:102DF00030462036F2E7000003781BB94BB2002BB7
:102E0000C8BF017070470000007870472DE9F74F88
:102E1000DDF83C90BDF830500D9E9DF83840BDF86F
:102E20004070804692469B46B9F1000F01D1002FB9
:102E300051D11F2C4FD898F80000B0B9072F47D8B0
:102E400035F0030347D13A4649464FF6FF70FFF786
:102E50003BFE20F001002D02400445EA0464400CD2
:102E600044EA40244FF6FF7321E040EA0520072F93
:102E700040EA0464F6D900254FF6FF73C5F120003F
:102E8000A5F120022AFA05F10BFA00F001432BFA12
:102E900002F211431846C9B2FFF704FE0835402D6F
:102EA0000346EBD13A464946FFF70EFE0346CDE90D
:102EB0000097324621464046FFF7E0FE3378013363
:102EC000DBB21F2B88BF0023337003B0BDE8F08F47
:102ED0006FF00300F9E76FF00100F6E72DE9F04F1E
:102EE00085B09246DDF848800F9D9DF840209DF802
:102EF0004490BDF84C7006469B46B8F1000F01D1D6
:102F0000002F48D11F2A46D83378002B46D00C0218
:102F100044EA02649DF8381044EAC93444EA0144A2
:102F20001C43072F44F0800432D900234FF6FF7270
:102F3000C3F1200CA3F120002AFA03F10BFA0CFCD8
:102F400041EA0C012BFA00F00143C9B21046039389
:102F5000FFF7A8FD039B0833402B0246E8D13A4611
:102F60004146FFF7B1FD0346CDE900872A462146D9
:102F70003046FFF783FEB9F1010F06D12B780133FC
:102F8000DBB21F2B88BF00232B7005B0BDE8F08F8C
:102F90004FF6FF73E8E76FF00100F6E76FF003000C
:102FA000F3E70000C06900B104307047C3691A68D4
:102FB000C261C2681A60C360438A013B43827047A2
:102FC0002DE9F041D0F81880194E14461D464146AF
:102FD000002709B9BDE8F081D1E90223A21A65EB07
:102FE0000303964277EB03031ED283698B420DD114
:102FF000FFF7A2FD83691B688361C3680B60438A86
:10300000C1608169013B43828846E2E7FFF794FD96
:103010000B68C8F80030C3680B60438AC160013B8D
:103020004382D8F80010D4E788460968D1E700BF8A
:1030300080841E002DE9F04F8BB00D46DDF85090D6
:1030400014469B468046002800F01981B9F1000F14
:1030500000F01581531E3F2B00F21181012A03D18C
:10306000BBF1000F40F00B810023CDE90833B8F825
:103070001430B5EBC30F4FEAC30703D300200BB0E6
:10308000BDE8F08F2B199F42D8F80C303ABF7F1B58
:10309000FFB227461BB9D8F81030002B7AD02F2D5D
:1030A0004ED8C5F13006B7424FF000032CBFF6B240
:1030B0003E4600932946D8F8080008AB3246FFF791
:1030C000B9FCA7EB060A35445FFA8AFAB8F814305F
:1030D00003F10053063BDB000493D8F80C30039354
:1030E0003021039B13B1BAF1000F2CD1D8F8100096
:1030F00040B1BAF1000F05D0009608AB5246691AEC
:10310000FFF798FC38B2002FB8D066070AD00AAB98
:1031100003EBD401624211F8083C02F007021341AC
:1031200001F8083C082C3CD9102C40F2B580202C2A
:1031300040F2B780BBF1000F00F09C80082334E020
:10314000BA460026C2E7049BE02B28BFE023069383
:103150000B44AB42059314D95A1B03980096924531
:1031600034BF5246D2B2691A08AB04300792FFF757
:1031700061FC079A1644AAEB020A1544F6B25FFAFC
:103180008AFA049B069A05999B1A0493039B1B6871
:103190000393A6E70093D8F8080008AB3A462946FF
:1031A000AEE7BBF1000F13D00123B4EBC30F6CD01B
:1031B000082C12D89DF82030621E23FA02F2D5079F
:1031C00006D54FF0FF3202FA04F423438DF8203085
:1031D0009DF8203089F8003051E7102C12D8BDF846
:1031E0002030621E23FA02F2D10706D54FF0FF32DB
:1031F00002FA04F42343ADF82030BDF82030A9F8DA
:1032000000303CE7202C0FD80899631E21FA03F305
:10321000DA0705D54FF0FF3202FA04F40C430894A4
:10322000089BC9F800302AE7402C2BD0DDE908655F
:10323000611EC4F12102A4F1210326FA01F105FA6D
:1032400002F225FA03F311431943CB0712D50122E9
:10325000A4F12003C4F1200102FA03F322FA01F1E0
:10326000A240524243EA010363EB430332432B4340
:10327000CDE90823DDE90823C9E90023FFE66FF063
:103280000100FCE66FF00800F9E6082CA0D9102C2C
:10329000B3D9202CEED8C3E7BBF1000FADD0022389
:1032A00083E7BBF1000FBBD004237EE730B5012AD2
:1032B000144638BF0124402C85B028BF4024002587
:1032C000012ACDE9025518D81B788DF8083063071C
:1032D0000AD004AB03EBD405624215F8083C02F0B7
:1032E0000702934005F8083C00910346224600215E
:1032F00002A8FFF79FFB05B030BD082AE4D9102AC9
:1033000003D81B88ADF80830E1E7202A8DBFD3E948
:1033100000231B680293CDE90223D8E710B5CB68E0
:103320001BB98B600B618B8210BDC4681A681C606E
:10333000C360438A013B4382CA60F0E72DE9F04F46
:10334000D1F8008093B018F0800FCDE90323C8F3C3
:10335000C01219BFC8F3C03BC8F306264FF0020BDA
:103360001646B8F1000F04460D4680F2C58118F0EC
:10337000C043059340F0C0810B7B002B00F0BC8163
:10338000BBF1020F03D00178B14240F0B88108F0E0
:103390007F0106916AB3C8F3074A2B44069A93F853
:1033A0000390760646EA0B4646EA82465FEAD91360
:1033B00046EA0A06079300F0908000220023CDE938
:1033C0000A23069B009367685B4652460AA920467B
:1033D000B84700287ED0A7699FB9314604F10C0098
:1033E000FFF78CFB0746E0B96FF0020013B0BDE8B1
:1033F000F08FC8F30F2A18F07F0F08BF0AF0030AF6
:10340000CBE73B699E420DD03F68002FF9D1314692
:1034100004F10C00FFF772FB07460028E4D0A36913
:103420003B60A761DDE90A2300264FF6FF70C6F175
:10343000200E22FA06F103FA0EFEA6F1200C23FA62
:103440000CFC41EA0E0141EA0C01C9B208360992AE
:103450000893FFF727FB402EDDE90832E7D1B88259
:10346000FB7D09F01F06C3F38403F31AD7E9022199
:1034700098B2002BBCBF00F120031BB252EA01003E
:10348000C8F304680FD00398821A049860EB010116
:10349000A14890424FF000028A4104D3079A002AC3
:1034A00055D0012B23DDFA7D4FEA890302F0030298
:1034B00003F07C031343FB7539462046FFF73CFBC2
:1034C000079BA3B9FB7DC3F38402013262F3860339
:1034D000FB7504E06FF00B0088E7A76917B96FF080
:1034E0000C0083E73B699E42BAD03F68F6E719F0CB
:1034F000400F2CD0039BBB60049BFB601422002177
:103500000DA8FEF7B5FA039B0A93049B0B932B1DA2
:103510000C932B7BADF83EA0013BDBB2ADF83C3009
:10352000069B8DF843308DF840B0A3688DF841605C
:103530008DF842800AA920469847FB7DC3F3840397
:10354000013303F01F039B02FB8200204EE7FB7D4B
:10355000C9F34012B2EBD31F40F0D480C3F384030D
:10356000B34240F0D28007992B7B4FEA9912002991
:1035700034D0D20741D4032B40F2CA80039BBB60F6
:10358000049BFB602B7BAE1D033BDBB2324639460E
:1035900004F10C00FFF7E2FA00280DDA2046394664
:1035A000FFF7CAFAFB7DC3F38403013303F01F0363
:1035B0009B02FB82032019E7AB883B832A7B033AFB
:1035C000B88AD2B23146FFF77FFAFB7DB882DA4380
:1035D000C2F3C01262F3C713FB75B6E76AB92E1DBA
:1035E000013BDBB23246394604F10C00FFF7B6FA74
:1035F0000028D3DB2A7B013AE2E7F98AC1F309010B
:10360000013B0529DAB253D8281D002307F11A0C13
:103610009A4208D910F801EB0CF801E001310133AE
:103620000629DBB2F4D103990A9104990B919342D4
:1036300007F11A010C9138BF043379680D9134BF3A
:1036400055FA83F300230E93FB8AADF83EA0C3F333
:1036500009031A44069B8DF843300023ADF83C2043
:103660008DF840B08DF841608DF842807B602A7BF8
:10367000B88A013A291DFFF727FA3B8BB8828342AB
:1036800003D1A3680AA92046984720460AA9FFF754
:1036900045FEFB7DB88AC3F38403013303F01F03A7
:1036A0009B02FB823B8B984214BF112000209DE6B9
:1036B0007B68002BB7D0062001E01C306346D3F8AE
:1036C00000C0BCF1000FF8D1091A081D05F1040C67
:1036D00000EB030905989DF8143001EB000EBEF1D4
:1036E0001B0FA0D89A429ED91CF8013B09F8013B58
:1036F000059B01330593EDE76FF0090076E66FF067
:103700000A0073E66FF00D0070E66FF00E006DE6D4
:103710006FF00F006AE600BF80841E00EFF309839C
:1037200005494A6B22F001024A63683383F3098832
:10373000002383F31188704700EF00E0202080F31E
:10374000118862B60C4B0D4AD96821F4E061090476
:10375000090C0A43DA60D3F8FC20094942F0807270
:10376000C3F8FC200A6842F001020A601022DA77EE
:1037700083F82200704700BF00ED00E00003FA0567
:10378000001000E010B5202383F311880E4B5B6816
:1037900013F4006314D0F1EE103AEFF30984683C9F
:1037A0004FF08073E361094BDB6B236684F3098878
:1037B00000F084FB10B1064BA36110BD054BFBE785
:1037C00083F31188F9E700BF00ED00E000EF00E0AF
:1037D0004B0600084E06000802684368114301606A
:1037E00003B1184770470000024A136843F0C00352
:1037F000136070470038014013B50E4C204600F0AE
:103800009FFA04F114000C49009400234FF48072D5
:1038100000F060F9094B0A4900944FF4807204F1FA
:10382000380000F0D9F9074A074BC4E9172302B062
:1038300010BD00BFA44A0020104B0020E93700084B
:10384000104C002000380140007A030A30B5037C98
:10385000234C002918BF0C46012B0FD1214B984255
:103860000CD1214B1A6E42F480421A66D3F88020A4
:1038700042F48042C3F88020D3F880302268036E7F
:10388000C16D846603EB5203B3FBF2F36268150467
:1038900042BF23F0070503F0070343EA4503CB606B
:1038A000A36843F040034B60E36843F001038B607F
:1038B00042F4967343F001030B604FF0FF330B6249
:1038C000510505D512F0102205D0B2F1805F04D069
:1038D00080F8643030BD7F23FAE73F23F8E700BF6C
:1038E000E44D0008A44A0020001002402DE9F047F2
:1038F000C66D3768F46934622107054618D014F0A4
:10390000080118BF8021E20748BF41F02001A3074A
:1039100048BF41F04001600748BF41F48071202357
:1039200083F31188281DFFF757FF002383F31188C5
:10393000E2050AD5202383F311884FF40071281D76
:10394000FFF74AFF002383F311884FF020094FF05F
:10395000000A14F0200838D13B0616D54FF0200994
:1039600005F1380A200610D589F31188504600F079
:1039700067F9002836DA0821281DFFF72DFF27F008
:1039800080033360002383F31188790614D562061F
:1039900012D5202383F31188D5E913239A4208D145
:1039A0002B6C33B11021281D27F04007FFF714FFBF
:1039B0003760002383F31188E30618D5AA6E1369D4
:1039C000ABB1BDE8F0475069184789F31188736AB5
:1039D00095F864102846194000F0CCF98AF3118854
:1039E000F469B6E7B06288F31188F469BAE7BDE814
:1039F000F087000000F1604303F561430901C9B29B
:103A000083F80013012200F01F039A4043099B0032
:103A100003F1604303F56143C3F880211A607047E6
:103A2000F8B5154682680669AA420B46816938BF17
:103A30008568761AB54204460BD218462A46FEF728
:103A400005F8A3692B44A361A3685B1BA360284608
:103A5000F8BD0CD918463246FDF7F8FFAF1BE168F8
:103A60003A463044FDF7F2FFE3683B44EBE7184683
:103A70002A46FDF7EBFFE368E5E700008368934221
:103A8000F7B51546044638BF8568D0E90460361A94
:103A9000B5420BD22A46FDF7D9FF63692B44636117
:103AA000A36828465B1BA36003B0F0BD0DD9324666
:103AB0000191FDF7CBFF0199E068AF1B3A46314415
:103AC000FDF7C4FFE3683B44E9E72A46FDF7BEFF84
:103AD000E368E4E710B50A440024C361029B8460F4
:103AE000C0E90000C0E90511C1600261036210BDB8
:103AF00008B5D0E90532934201D1826882B9826863
:103B0000013282605A1C42611970D0E904329A4233
:103B100024BFC3684361002100F0A0FA002008BD63
:103B20004FF0FF30FBE7000070B5202304460E463F
:103B300083F31188A568A5B1A368A269013BA360BE
:103B4000531CA36115782269934224BFE368A361E3
:103B5000E3690BB120469847002383F31188284678
:103B600007E03146204600F069FA0028E2DA85F3E2
:103B7000118870BD2DE9F74F04460E46174698464A
:103B8000D0F81C904FF0200A8AF311884FF0000BF8
:103B9000154665B12A4631462046FFF741FF0346E8
:103BA00060B94146204600F049FA0028F1D00023D0
:103BB00083F31188781B03B0BDE8F08FB9F1000FD3
:103BC00003D001902046C847019B8BF31188ED1A62
:103BD0001E448AF31188DCE7C0E90511C160C361A6
:103BE0001144009B8260C0E90000016103627047DC
:103BF000F8B504460D461646202383F31188A768BE
:103C0000A7B1A368013BA36063695A1C62611D7080
:103C1000D4E904329A4224BFE3686361E3690BB1DB
:103C200020469847002080F3118807E0314620465F
:103C300000F004FA0028E2DA87F31188F8BD0000EA
:103C4000D0E905239A4210B501D182687AB9826819
:103C5000013282605A1C82611C7803699A4224BF37
:103C6000C3688361002100F0F9F9204610BD4FF0D0
:103C7000FF30FBE72DE9F74F04460E4617469846FE
:103C8000D0F81C904FF0200A8AF311884FF0000BF7
:103C9000154665B12A4631462046FFF7EFFE03463A
:103CA00060B94146204600F0C9F90028F1D0002350
:103CB00083F31188781B03B0BDE8F08FB9F1000FD2
:103CC00003D001902046C847019B8BF31188ED1A61
:103CD0001E448AF31188DCE70268436811430160DF
:103CE00003B11847704700001430FFF743BF0000CE
:103CF0004FF0FF331430FFF73DBF00003830FFF7BF
:103D0000B9BF00004FF0FF333830FFF7B3BF0000FA
:103D10001430FFF709BF00004FF0FF311430FFF7F8
:103D200003BF00003830FFF763BF00004FF0FF32E1
:103D30003830FFF75DBF000000207047FFF75CBD23
:103D4000044B03600023C0E9023343600123037482
:103D5000704700BFFC4D000810B52023044683F3D4
:103D60001188FFF773FD02232374002383F3118866
:103D700010BD000038B5C36904460D461BB90421C7
:103D80000844FFF7A9FF294604F11400FFF7B0FE2D
:103D9000002806DA201D4FF48061BDE83840FFF7A7
:103DA0009BBF38BD024B0022C3E900339A607047C5
:103DB000104D0020002303748268054B1B6899682E
:103DC0009142FBD25A6803604260106058607047AD
:103DD000104D002008B5202383F31188037C032BAA
:103DE00005D0042B0DD02BB983F3118808BD43698E
:103DF00000221A604FF0FF334361FFF7DBFF00231F
:103E0000F2E7D0E9003213605A60F3E7002303744D
:103E10008268054B1B6899689142FBD85A68036019
:103E20004260106058607047104D0020054B1969C2
:103E30000874186802681A605360186101230374DB
:103E4000FCF7EEBB104D002030B54B1C0B4D87B07E
:103E5000044610D02B690A4A01A800F019F920463F
:103E6000FFF7E4FF049B13B101A800F04DF92B69A3
:103E7000586907B030BDFFF7D9FFF8E7104D0020B3
:103E8000D53D000838B50C4D41612B6981689A68B1
:103E90009142044603D8BDE83840FFF78BBF18466F
:103EA000FFF7B4FF01232C61014623742046BDE8CF
:103EB0003840FCF7B5BB00BF104D0020044B1A681A
:103EC0001B6990689B68984294BF0020012070474E
:103ED000104D002010B5084C236820691A68226034
:103EE0005460012223611A74FFF790FF0146206994
:103EF000BDE81040FCF794BB104D002008B5FFF75B
:103F0000DDFF18B1BDE80840FFF7E4BF08BD0000C1
:103F1000FFF7E0BFFEE7000010B50C4CFFF742FFD3
:103F200000F0A8F80A498022204600F03DF801235D
:103F300044F8180C0374FFF701FC002383F3118885
:103F400062B60448BDE8104000F04EB8384D00207D
:103F5000244E0008344E000808B572B6034B586270
:103F600000F05AFA00F00EFBFEE700BF104D0020F3
:103F700000F004B9EFF3118020B9EFF3058320229C
:103F800082F311887047000010B530B9EFF3058453
:103F9000C4F3080414B180F3118810BDFFF7AEFF1D
:103FA00084F31188F9E700008260022202827047E0
:103FB0008368A3F17C0243F80C2C026943F83C2C83
:103FC000426943F8382C074A43F81C2CC26843F86E
:103FD000102C022203F8082C002203F8072CA3F16E
:103FE000180070473906000810B5202383F31188A4
:103FF000FFF7DEFF00210446FFF744FF002383F3B1
:104000001188204610BD0000024B1B6958610F202B
:10401000FFF70CBF104D0020202383F31188FFF71A
:10402000F3BF000008B50146202383F31188082060
:10403000FFF70AFF002383F3118808BD49B1064B3F
:1040400042681B6918605A60136043600420FFF7E0
:10405000FBBE4FF0FF307047104D002003689842C0
:1040600006D01A680260506059611846FFF7A2BE78
:1040700070470000054B03F11402C3E905224FF01D
:10408000FF310022C3E90712704700BF104D002026
:1040900070B51C4EC0E9032305460C4600F0E8FA53
:1040A000334653F8142F9A420DD13062C5E90124EA
:1040B0002A60022C2CBF00190230C6E90555BDE864
:1040C000704000F0C3BA316A431AE31838BF1C4687
:1040D0009368A34202D9081900F0C6FA73699A6876
:1040E00094420CD85A68AC602B606A6015609A687C
:1040F0005D60121B9A604FF0FF33F36170BD1B6867
:10410000A41AECE7104D002038B51B4C63699842A7
:104110000DD0D0E9003213605A6000228168C2607D
:104120009A680A449A604FF0FF33E36138BD224633
:10413000036842F8143F002193425A60C16003D1E2
:10414000BDE8384000F08ABA9A688168256A0A4456
:104150009A6000F08DFA63699A68411B8A42E5D93A
:10416000AB181D1A012D206A98BF8A1CBDE8384083
:10417000104400F079BA00BF104D00202DE9F04145
:10418000184C002704F11406656900F071FA236ADF
:10419000AA68C11A8A4215D813442362D5E90032AD
:1041A00013605A606369D5F80C80EF60B34201D1A7
:1041B00000F054FA87F311882869C047202383F35D
:1041C0001188E1E76169B14209D013441B1ABDE8C7
:1041D000F041022B2CBFC018023000F045BABDE8F8
:1041E000F08100BF104D002000207047FEE7000066
:1041F000704700004FF0FF3070470000BFF34F8F53
:10420000024A1369DB03FCD4704700BF0020024060
:1042100008B5094B1B7873B9FFF7F0FF074B5A69D4
:10422000002ABFBF064A9A6002F188329A601A6873
:1042300022F480621A6008BDD84E0020002002409F
:104240002301674508B50B4B1B7893B9FFF7D6FFE1
:10425000094B5A6942F000425A611A6842F480528E
:104260001A601A6822F480521A601A6842F4806256
:104270001A6008BDD84E0020002002407F289ABF57
:1042800000F58030C0020020704700004FF400604D
:1042900070470000802070477F2808B50BD8FFF7D3
:1042A000EDFF00F500630268013204D1043083425F
:1042B000F9D1012008BD0020FCE700007F2810B5DF
:1042C00004461FD8FFF79AFFFFF7A2FF0E4BF32219
:1042D0001A6102225A615A6942EAC0025A615A6955
:1042E00042F480325A61FFF789FF4FF40061FFF713
:1042F000C5FF00F043F9FFF7A5FF2046BDE81040D9
:10430000FFF7CABF002010BD002002402DE9F8438E
:1043100040EA020313F00703144606D02E4B40F286
:10432000BF221A600020BDE8F88385182B4A954209
:104330000CD9294A4FF431711160F3E7031D1B6852
:104340004A68934208D1083C08300831072C14D938
:1043500002680B689A42F1D0FFF75AFFFFF74EFF51
:104360001F4E08314FF001084FF00009012CA1F158
:10437000080706D8FFF766FF01E0002CECD101200A
:10438000D1E7C6F81480054651F8083C45F8043BCF
:1043900051F8043C4360FFF731FFC6F814900268FF
:1043A00051F8083C9A420CD00B4B40F2EA221A60BA
:1043B0000C4B18600C4B1C600C4B1F60FFF742FF4E
:1043C000B0E72D6851F8043C9D4201F10801EBD1A2
:1043D000083C0830CAE700BFD44E0020FFFF0308A6
:1043E00000200240C84E0020D04E0020CC4E0020BD
:1043F000084908B50B7828B11BB9FFF709FF01235D
:104400000B7008BD002BFCD0BDE808400870FFF71A
:1044100019BF00BFD84E002008B54FF4C0314FF08F
:10442000005000F0ADF8BDE808404FF480414FF077
:10443000805000F0A5B8000070B582B0FFF79AFD7B
:104440000E4E054600F014F93268904237BF0C4A10
:104450000B49516814682EBFD1E900410131516008
:104460000419034641F10001284601913360FFF72A
:104470008BFD0199204602B070BD00BFDC4E0020CC
:10448000E04E002070B582B0FFF774FD104E054677
:1044900000F0EEF83268904237BF0E4A0D4951687D
:1044A00014682EBFD1E9004101315160041941F176
:1044B00000010346284601913360FFF765FD01992D
:1044C0004FF47A7200232046FBF792FE02B070BDD3
:1044D000DC4E0020E04E00200244D2B2904200D1D7
:1044E0007047431C800000F1804000F514500068C4
:1044F00041F8040BD8B2F1E7124B10B5D3F8904055
:10450000240409D4D3F89040C3F89040D3F89040E5
:1045100044F40044C3F890400B4C2368024443F435
:1045200080732360D2B2904200D110BD431C800042
:1045300000F1804000F5145051F8044B0460D8B2EB
:10454000F1E700BF001002400070004007B50122F3
:1045500001A90020FFF7C0FF019803B05DF804FB3C
:1045600013B50446FFF7F2FFA04205D0012201A9CE
:1045700000200194FFF7C0FF02B010BD704700009B
:104580007047000070470000074B45F255521A6013
:1045900002225A6040F6FF729A604CF6CC421A60D2
:1045A000024B01221A70704700300040E94E002093
:1045B000034B1B781BB1034B4AF6AA221A607047C3
:1045C000E94E002000300040044BD3F894309B00AB
:1045D00042BF034B01221A70704700BF0010024017
:1045E000E84E0020024B4FF40002C3F894207047BD
:1045F00000100240014B1878704700BFE84E0020C1
:1046000070470000FEE700000A4B0B480B4A90423F
:104610000BD30B4BDA1C121AC11E22F003028B4281
:1046200038BF00220021FDF723BA53F8041B40F8DD
:10463000041BECE7A04F0008744F0020744F0020CB
:10464000744F00207047000000F078B84FF08043AE
:10465000002258631A610222DA6070474FF08043EB
:104660000022DA60704700004FF0804358637047C3
:104670004FF08043586A70474B6843608B68836093
:10468000CB68C3600B6943614B6903628B6943620A
:104690000B6803607047000008B5204BDA6A42F0EF
:1046A0007F02DA62DA6A22F07F02DA62DA6ADA6CB0
:1046B00042F07F02DA64DA6E42F07F02DA66184A6C
:1046C000DB6E11464FF09040FFF7D6FF02F11C0160
:1046D00000F58060FFF7D0FF02F1380100F580603F
:1046E000FFF7CAFF02F1540100F58060FFF7C4FF35
:1046F00002F1700100F58060FFF7BEFF02F18C014E
:1047000000F58060FFF7B8FF02F1A80100F58060B6
:10471000FFF7B2FFBDE8084000F064B800100240A7
:104720004C4E000808B500F003FAFFF7F5FBBDE8B2
:104730000840FFF749BF0000704700000F4B9A6D1B
:1047400042F001029A659A6F42F001029A670C4AA0
:104750009B6F936843F0010393604FF08043A7225F
:104760009A624FF0FF32DA6200229A615A63DA608D
:104770005A6001225A611A60704700BF001002405F
:10478000002004E04FF0804208B51169D3680B4067
:10479000D9B2C9439B07116107D5202383F3118840
:1047A000FFF7E6FB002383F3118808BD08B50B4B28
:1047B000D3F8902012F4407F1FBF4FF48032C3F82B
:1047C00090200022C3F89020D3F89020C3F89020C6
:1047D00000F086F9024B00225A6008BD001002402A
:1047E00000700040484B4FF0FF319A6A99629A6A14
:1047F00000229A62986AD86A60F07F00D862D86A0C
:1048000000F07F00D862D86A186B1963186B1A63BE
:10481000186B986B9963986B9A63986BD86BD96394
:10482000D86BDA63D86B186C1964196C1A641A6C3B
:104830009A6D42F080529A659A6F22F080529A6780
:104840009A6F324A4FF400711160516911F480611E
:10485000FBD14FF40040516090604FF48070D16004
:10486000C2F88000116251629162D162116351639A
:104870009163D163116451649164D1641165516590
:10488000D3F8982042F00102C3F89820D3F898207A
:104890009007FBD51A6842F480321A601A689103B7
:1048A000FCD51A490A6842F480720A60184ADA6034
:1048B0001A6842F080721A601A689201FCD50022D0
:1048C00014499A60C3F888101349C3F89C20134A0E
:1048D0000A600A6802F00F02042AFAD19A6842F0CC
:1048E00003029A609A6802F00C020C2AFAD11A6E3E
:1048F00042F001021A66D3F8802042F00102C3F8A8
:104900008020D3F8803070470010024000700040D3
:10491000032A6101550100500020024004070400F1
:10492000074A08B5536903F00103536123B1054AEF
:1049300013680BB150689847BDE80840FEF722BFE6
:1049400000040140EC4E0020074A08B5536903F00B
:104950000203536123B1054A93680BB1D0689847AD
:10496000BDE80840FEF70EBF00040140EC4E0020F9
:10497000074A08B5536903F00403536123B1054A9C
:1049800013690BB150699847BDE80840FEF7FABEBD
:1049900000040140EC4E0020074A08B5536903F0BB
:1049A0000803536123B1054A93690BB1D069984755
:1049B000BDE80840FEF7E6BE00040140EC4E0020D2
:1049C000074A08B5536903F01003536123B1054A40
:1049D000136A0BB1506A9847BDE80840FEF7D2BE93
:1049E00000040140EC4E0020164B10B55C6904F445
:1049F00078725A61A30604D5134A936A0BB1D06A40
:104A00009847600604D5104A136B0BB1506B98475A
:104A1000210604D50C4A936B0BB1D06B9847E20585
:104A200004D5094A136C0BB1506C9847A30504D503
:104A3000054A936C0BB1D06C9847BDE81040FEF767
:104A4000A1BE00BF00040140EC4E0020194B10B580
:104A50005C6904F47C425A61620504D5164A136D00
:104A60000BB1506D9847230504D5134A936D0BB1D4
:104A7000D06D9847E00404D50F4A136E0BB1506E09
:104A80009847A10404D50C4A936E0BB1D06E984799
:104A9000620404D5084A136F0BB1506F9847230482
:104AA00004D5054A936F0BB1D06F9847BDE810400D
:104AB000FEF768BE00040140EC4E002008B5034834
:104AC000FEF714FFBDE80840FEF75CBEA44A0020D4
:104AD00008B5FFF757FEBDE80840FEF753BE0000DB
:104AE000062108B50846FEF785FF06210720FEF7D8
:104AF00081FF06210820FEF77DFF06210920FEF731
:104B000079FF06210A20FEF775FF06211720FEF720
:104B100071FF06212820FEF76DFF07211C20FEF7FC
:104B200069FFBDE808400C212520FEF763BF0000A7
:104B300008B5FFF73BFE00F009F8FFF7FFF8FFF7B5
:104B4000FBFDBDE80840FFF77FBD00000023054ADC
:104B500019460133102BC2E9001102F10802F8D105
:104B6000704700BFEC4E00200B460146184600F08F
:104B700003B8000000F00EB810B5054C13462CB178
:104B80000A4601460220AFF3008010BD2046FCE734
:104B900000000000024B0146186800F035B800BF65
:104BA0002423002010B501390244904201D1002095
:104BB00005E0037811F8014FA34201D0181B10BD86
:104BC0000130F2E72DE9F041A3B1C91A1778014489
:104BD000044603F1FF3C8C42204601D9002009E045
:104BE0000578BD4204F10104F5D10CEB0405D6189B
:104BF000A54201D1BDE8F08115F8018D16F801ED4F
:104C0000F045F5D0E7E7000037B5002944D051F86A
:104C1000043C0190002BA1F10404B8BFE41800F09B
:104C200047F81E4A0198136833B96360146003B0F3
:104C3000BDE8304000F042B8A34208D925686119A8
:104C40008B4201BF19685B6849192160EDE71A467C
:104C50005B680BB1A342FAD911685518A5420BD174
:104C6000246821445418A3421160E0D11C685B6899
:104C7000536021441160DAE702D90C230360D6E7C0
:104C8000256861198B4204BF19685B68636004BFC3
:104C9000491921605460CAE703B030BD6C4F002051
:104CA000034611F8012B03F8012B002AF9D17047B4
:104CB000014800F009B800BF704F0020014800F023
:104CC00005B800BF704F002070470000704700001B
:104CD0006F72672E6172647570696C6F742E6D529D
:104CE0006F2D4D3130303935000000004E6F20619E
:104CF0007070207369670A00426164206677206CD7
:104D0000656E6774682025750A0042616420626FD1
:104D10006172645F69642025752073686F756C64C7
:104D20002062652025750A00426164206677206450
:104D3000657363726970746F72206C656E677468F6
:104D40002025750A0042616420617070204352433F
:104D5000203078253038783A30782530387820304F
:104D600078253038783A3078253038780A00476F1F
:104D70006F64206669726D776172650A0040A2E413
:104D8000F16468910600000053544D333247343FBC
:104D90003F0000004261642043414E496661636503
:104DA00020696E6465782E0000000000000000009D
:104DB000751F00089D250008751B0008091C0008C8
:104DC000611D0008D11B0008991B00089D1B0008ED
:104DD000791B0008811B00087D1B0008211D0008AD
:104DE0008D1B00080096000000000000000000007D
:104DF00000000000000000000000000000000000B3
:104E0000053D0008F13C00082D3D0008193D000853
:104E1000253D0008113D0008FD3C0008E93C000864
:104E2000393D00086D61696E0000000069646C65C1
:104E3000000000002C4E0008504D0020C84E0020FD
:104E400001000000153F0008000000000001A82A32
:104E500000000000AAAABEAA00001400EFFF000094
:104E60000000000070970900000000000000000032
:104E7000AAAAAAAA00000000FFFF0000000000008C
:104E8000000000000000000000000000AAAAAAAA7A
:104E900000000000FFFF0000000000000000000014
:104EA0000000000000000000AAAAAAAA000000005A
:104EB000FFFF0000000000000000000000000000F4
:104EC00000000000AAAAAAAA00000000FFFF00003C
:104ED00000000000000000000000000000000000D2
:104EE000AAAAAAAA00000000FFFF0000000000001C
:104EF000000000000000000000000000AAAAAAAA0A
:104F000000000000FFFF00000000000000000000A3
:104F100010B3FF7F0100000011040000000000003A
:104F200000880300FE2A0100D2040000FF000000F8
:104F300000000000884D00083F00000028230020EA
:104F40000000000000000000000000000000000061
:104F50000000000000000000000000000000000051
:104F60000000000000000000000000000000000041
:104F70000000000000000000000000000000000031
:104F80000000000000000000000000000000000021
:104F90000000000000000000000000000000000011
:00000001FF
